:020000040000fa
:080000000002040000000000f2
:020000040000fa
:04000800aa04000046
:020000040000fa
:04000c00aa04000042
:020000040000fa
:04001000aa0400003e
:020000040000fa
:04001400aa0400003a
:020000040000fa
:04001800aa04000036
:020000040000fa
:04001c00aa04000032
:020000040000fa
:04002000aa0400002e
:020000040000fa
:04002400aa0400002a
:020000040000fa
:04002800aa04000026
:020000040000fa
:04002c00aa04000022
:020000040000fa
:04003000aa0400001e
:020000040000fa
:04003400aa0400001a
:020000040000fa
:04003800fc030000c5
:020000040000fa
:04003c00aa04000012
:020000040000fa
:04004000aa0400000e
:020000040000fa
:04004400aa0400000a
:020000040000fa
:04004800a803000009
:020000040000fa
:04004c00aa04000002
:020000040000fa
:04005000aa040000fe
:020000040000fa
:04005400aa040000fa
:020000040000fa
:04005800aa040000f6
:020000040000fa
:04005c004804000054
:020000040000fa
:04006000aa040000ee
:020000040000fa
:04006400aa040000ea
:020000040000fa
:04006800aa040000e6
:020000040000fa
:04006c00aa040000e2
:020000040000fa
:04007000aa040000de
:020000040000fa
:04007400cc020000ba
:020000040000fa
:04007800aa040000d6
:020000040000fa
:04007c00aa040000d2
:020000040000fa
:04008000aa040000ce
:020000040000fa
:04008400aa040000ca
:020000040000fa
:040088007e040000f2
:020000040000fa
:04008c00aa040000c2
:020000040000fa
:04009000aa040000be
:020000040000fa
:04009400c80300009d
:020000040000fa
:04009800aa040000b6
:020000040000fa
:04009c00aa040000b2
:020000040000fa
:0400a0002404000034
:020000040000fa
:0400a400160400003e
:020000040000fa
:0400a800aa040000a6
:020000040000fa
:0400ac00aa040000a2
:020000040000fa
:0400b000aa0400009e
:020000040000fa
:0400b400aa0400009a
:020000040000fa
:0400b800aa04000096
:020000040000fa
:0400bc00aa04000092
:020000040000fa
:0400c000aa0400008e
:020000040000fa
:0400c400aa0400008a
:020000040000fa
:0400c800aa04000086
:020000040000fa
:0400cc00aa04000082
:020000040000fa
:0400d000aa0400007e
:020000040000fa
:0400d400aa0400007a
:020000040000fa
:0400d800aa04000076
:020000040000fa
:0400dc00aa04000072
:020000040000fa
:0400e000aa0400006e
:020000040000fa
:0400e400d403000041
:020000040000fa
:0400e800aa04000066
:020000040000fa
:0400ec00aa04000062
:020000040000fa
:0400f000aa0400005e
:020000040000fa
:0400f4009003000075
:020000040000fa
:0400f800aa04000056
:020000040000fa
:0400fc00aa04000052
:020000040000fa
:04010000aa0400004d
:020000040000fa
:04010400aa04000049
:020000040000fa
:04010800aa04000045
:020000040000fa
:04010c00aa04000041
:020000040000fa
:04011000aa0400003d
:020000040000fa
:04011400aa04000039
:020000040000fa
:04011800aa04000035
:020000040000fa
:04011c00aa04000031
:020000040000fa
:04012000aa0400002d
:020000040000fa
:04012400aa04000029
:020000040000fa
:04012800aa04000025
:020000040000fa
:04012c00aa04000021
:020000040000fa
:040130003c0400008b
:020000040000fa
:04013400aa04000019
:020000040000fa
:04013800aa04000015
:020000040000fa
:04013c00aa04000011
:020000040000fa
:04014000aa0400000d
:020000040000fa
:04014400aa04000009
:020000040000fa
:04020800aa04000044
:020000040000fa
:04020c00aa04000040
:020000040000fa
:04021000aa0400003c
:020000040000fa
:04021400aa04000038
:020000040000fa
:04021800aa04000034
:020000040000fa
:04021c00aa04000030
:020000040000fa
:04022000aa0400002c
:020000040000fa
:04022400aa04000028
:020000040000fa
:04022800aa04000024
:020000040000fa
:04022c00aa04000020
:020000040000fa
:04023000aa0400001c
:020000040000fa
:04023400aa04000018
:020000040000fa
:04023800aa04000014
:020000040000fa
:04023c00aa04000010
:020000040000fa
:04024000aa0400000c
:020000040000fa
:04024400aa04000008
:020000040000fa
:04024800aa04000004
:020000040000fa
:04024c00aa04000000
:020000040000fa
:04025000aa040000fc
:020000040000fa
:04025400aa040000f8
:020000040000fa
:04025800aa040000f4
:020000040000fa
:04025c00aa040000f0
:020000040000fa
:04026000aa040000ec
:020000040000fa
:04026400aa040000e8
:020000040000fa
:04026800aa040000e4
:020000040000fa
:04026c00aa040000e0
:020000040000fa
:04027000aa040000dc
:020000040000fa
:04027400aa040000d8
:020000040000fa
:04027800aa040000d4
:020000040000fa
:04027c00aa040000d0
:020000040000fa
:04028000aa040000cc
:020000040000fa
:04028400aa040000c8
:020000040000fa
:04028800aa040000c4
:020000040000fa
:04028c00aa040000c0
:020000040000fa
:04029000aa040000bc
:020000040000fa
:04029400aa040000b8
:020000040000fa
:04029800aa040000b4
:020000040000fa
:04029c00aa040000b0
:020000040000fa
:0402a000aa040000ac
:020000040000fa
:0402a400aa040000a8
:020000040000fa
:0402a800aa040000a4
:020000040000fa
:0402ac00aa040000a0
:020000040000fa
:0402b000aa0400009c
:020000040000fa
:0402b400aa04000098
:020000040000fa
:0402b800aa04000094
:020000040000fa
:0402bc00aa04000090
:020000040000fa
:0402c000aa0400008c
:020000040000fa
:0402c400aa04000088
:020000040000fa
:0402c800aa04000084
:020000040000fa
:0402cc00aa04000080
:020000040000fa
:0402d000aa0400007c
:020000040000fa
:0402d400aa04000078
:020000040000fa
:0402d800aa04000074
:020000040000fa
:0402dc00aa04000070
:020000040000fa
:0402e000aa0400006c
:020000040000fa
:0402e400aa04000068
:020000040000fa
:0402e800aa04000064
:020000040000fa
:0402ec00aa04000060
:020000040000fa
:0402f000aa0400005c
:020000040000fa
:0402f400aa04000058
:020000040000fa
:0402f800aa04000054
:020000040000fa
:0402fc00aa04000050
:020000040000fa
:04030000aa0400004b
:020000040000fa
:04030400aa04000047
:020000040000fa
:04030800aa04000043
:020000040000fa
:04030c00aa0400003f
:020000040000fa
:04031000aa0400003b
:020000040000fa
:04031400aa04000037
:020000040000fa
:04031800aa04000033
:020000040000fa
:04031c00aa0400002f
:020000040000fa
:04032000aa0400002b
:020000040000fa
:04032400aa04000027
:020000040000fa
:04032800aa04000023
:020000040000fa
:04032c00aa0400001f
:020000040000fa
:04033000aa0400001b
:020000040000fa
:04033400aa04000017
:020000040000fa
:04033800aa04000013
:020000040000fa
:04033c00aa0400000f
:020000040000fa
:04034000aa0400000b
:020000040000fa
:04034400aa04000007
:020000040000fa
:100400002f852000ee6f24000e0188000000000000
:10041000000020000000e000020032000001200087
:1004200020028800140007004c0107000000e000d3
:1004300003003a0060132100010020000200370091
:100440000000200001002000810f70000100320038
:1004500014000700000020000000e000020032004d
:100460000000020000000000140e02000000000066
:100470000040da000000fe004440a90040072000d0
:100480000000e0000300320000002000a00188000e
:100490004440a800000006008a1f78008b1f7800e7
:1004a0000000060091018800800478000000eb0045
:1004b0001a003700e284440032a0b4009905ba0063
:1004c000e284440032a0b4009906ba00e2844400f9
:1004d00032a0b4000006eb00476fde00fd07b2005b
:1004e000636ce10003003a00ebff07000000eb0043
:1004f0000a003700606ce10004003a00005deb0088
:100500008b05e900fdff3e00040037006168e10053
:10051000010032000086eb000b00070019c7ba008b
:100520001905ba000e04e00003003a000a00e000da
:10053000e0ff3a0000000600fe07b2009e018800be
:100540008a047800f5ff3700395dba008b05e900b1
:100550000c003200295dba008b05e900080032006a
:100560000c00e00003003a00e284440032a0b40032
:10057000f5ff370019ddba008b05e900faff3a00f4
:100580008904e800e184440032a0b40000000600c1
:10059000300e0400000000003600f800809fbe000e
:1005a000829fbe00849fbe00869fbe000000fa00ae
:1005b000a116800000042000008060000000e00020
:1005c00008003a00c462a900c402a900c422a9001c
:1005d000c442a900c482a900c4a2a900c4c2a9003f
:1005e000c4e2a900a1168000000420000080600081
:1005f0000000e00008003200c462a800c402a800a5
:10060000c422a800c442a800c482a800c4a2a800b2
:10061000c4c2a800c4e2a800a116800000082000ff
:10062000008060000000e00005003a0010418000fa
:10063000e10f500002003a00ae0307002228ef004d
:10064000a116800000082000008060000000e0008b
:1006500002003200100020001041880011168000b6
:1006600000082000008060000000e00002003a0066
:1006700010002000f04088001116800000082000c3
:10068000008060000000e0000c003200f0408000bc
:10069000e10f500008003a00d0418000e30f500005
:1006a00004003c00d04180000000e800d0418800f8
:1006b000010037003a28ef001e28ef00a116800045
:1006c00000002200008060000000e00005003a0009
:1006d00020418000e10f500002003a002428ef0082
:1006e000d9050700a11680000000220000806000ec
:1006f0000000e000020032001000200020418800cd
:100700008660a9000080fa004f03be004f02be00c1
:100710004f01be004f00be003600f9000040060049
:10072000801f78000000fa00e04180000000e8002f
:10073000e0418800004280000000e800004288009c
:100740008a60a9000080fa004f007800004006008f
:100750003600f800809fbe00829fbe00849fbe00ce
:10076000869fbe000000fa00570607008500a9001a
:1007700084e0a9000080fa004f03be004f02be00d3
:100780004f01be004f00be003600f90000400600d9
:100790000000fa000000000000000000000000005f
:1007a0000080fa00004006003600f800809fbe007e
:1007b000829fbe00849fbe00869fbe000000fa009c
:1007c000904180000000e800904188008a04070002
:1007d00010002000a041880089e0a9000080fa00f4
:1007e0004f03be004f02be004f01be004f00be00cf
:1007f0003600f900004006003400f800881f780039
:1008000008002000a80188004f0478000000fa00ca
:100810000000000000000000000000008480a9002b
:100820000080fa003400f900004006000000fa00e1
:10083000000000000000000087c0a90087e0a900b8
:100840000080fa0000400600809fbe000000fa0011
:10085000b011800080407800f072240001487800d8
:10086000000000000000000087c0a9000080fa001e
:100870004f00be00004006000000fa00000000002b
:10088000000000008c40a9000080fa000040060033
:100890003600f800809fbe00829fbe00849fbe008d
:1008a000869fbe003400f80000002000a0018800f0
:1008b0000000fa0015020700001880004200de0068
:1008c0001040880010408000e18420002e020700c4
:1008d0007802070085a0a9002023a8000080fa0064
:1008e0003400f9004f03be004f02be004f01be00ae
:1008f0004f00be003600f900004006003600f80048
:10090000809fbe00829fbe00849fbe00869fbe0067
:100910003400f80000002000a00188000000fa0068
:1009200000000000000000000000000010030700ad
:100930008700a9000080fa003400f9004f03be00d0
:100940004f02be004f01be004f00be003600f9004e
:10095000004006000040da000000fe000000050034
:1009600003f0a200889fbe008a9fbe008c1f780003
:10097000f3000700fa0033006450e1004f0032003a
:100980006420e1005200320003826c0007003b004b
:100990000905d0000306d000820f54000c065d004c
:1009a0000200390002003200890178000306780055
:1009b0008582550004003d000003fd008103fd0019
:1009c0008502ea008b854200840f720002003b0022
:1009d00060001000e08018006011b8000005eb0016
:1009e0007a28e1000a00390006007800c75ddd00c2
:1009f000f707b200878075002d00370082817100f3
:100a00000a017800610560008180d1000080d30078
:100a10008502e900f9ff3b00060440008784480096
:100a200002003b0060041400e0841c000988a3005d
:100a3000070032008a8171008281710061016400c7
:100a40008904d1000884d3008b05e8001700370023
:100a50000978a30013003a000b00e00013003400f3
:100a60008b05e9000804440089844c000a447400a2
:100a70000978a3000d003a000b00e00007003400e5
:100a80008b05e9000804440089844c0001003a0009
:100a90000b0020000978a300f7ff32000001eb00f3
:100aa00002003700828171000a01780069000700a6
:100ab0000cf0a70001f0a000b20037006420e100b4
:100ac00002003a00838f6c00b20033000801be00c0
:100ad0000200be00ab003700889fbe008a9fbe00a8
:100ae0008c1f7800960007009d00330003866c0081
:100af0006450e1002e0032006420e1003300320037
:100b00006150e1002f0032006120e100310032002d
:100b100085855500eb07b00009002000080420007f
:100b2000050037000804440089844c000a003100a5
:100b30000603430087834b000001530081815b0063
:100b4000f8ff33000203be000800a00008044400c0
:100b500089844c00f6ff3900c639dd00830173003b
:100b600001003200130020008904d1000884d30062
:100b70000998a300050032000800a7000300a000a8
:100b80008904d1000884d3008b05e8008904d100d2
:100b90000884d3000001eb000281d2002d00070081
:100ba00001f0a1000cf0a70001f0a00075003700d3
:100bb0006420e100770032000801be000200be00a0
:100bc000f7ff37006120e100720032006000b800da
:100bd000f3ff37000000200001f82700f0ff370086
:100be0000001be00410007000470a70003f0a1004f
:100bf00003f8a30013003a006509b10010003200a9
:100c0000090035006928e1000200350001002800d4
:100c10000000050000004000818048008502e900d6
:100c2000fcff3a0000000600f88f42000500350086
:100c30008100d1000080d3008502e800fcff3a006b
:100c4000000006008000eb00000005006011b80005
:100c50009700370081002000618055000b003d00a7
:100c60000b00200061fe2f000100e1001d00340098
:100c700082817100610164008904d1000884d3007d
:100c80000000e800faff3a007100200061006400f3
:100c9000030070000200600009003200610444009b
:100ca000e0844c000988a500050032008b05e800af
:100cb0006808e10002003a008904d1000884d300ea
:100cc000f20f20000258e10005003d00c75ddd0085
:100cd000f907b2008980750008007800000006005e
:100ce0000bf827008b00780000000500c70ade0023
:100cf000f107b200f50fb20008003200e1cf420068
:100d0000020032000170a00024000500810f700075
:100d1000010032000408050044000500810f700046
:100d200002003a00140005008502e90000004000be
:100d300081c04800fcff3b000170a00024000500ba
:100d40000004be00e9ff07000003be000405be006a
:100d50000200be00e5ff0700844f7500000006009a
:100d60000200be006450e100050036006420e1008e
:100d7000020036000968a30001003a000800be0026
:100d80000160a0004f0678004f05be004f04be0072
:100d900000000600f0ff2f00f1ff2700f9ff3700e9
:100da000889fbe008a9fbe008c1f7800e4ff07006a
:100db000ebff330003866c006450e1002400320036
:100dc0006420e100270032006150e100220032007f
:100dd0006120e100210032008b854200eb07b10069
:100de0000134b800003ab8000804420089844a007f
:100df000013ab8000030b8008880400009014a007c
:100e000004003300000040008180480002014900d6
:100e10008b05e900c909dd00830170000100320083
:100e200013002000c814de004814dd004709de006e
:100e30001200b200c808de000884700085ff0700b9
:100e400001f0a1000cf0a70001f0a000cdff3700d9
:100e50006120e100cfff32000801be000200be00a9
:100e6000f7ff37006150e100fcff3a00c9ff37008f
:100e70006022b800060220000000d0008180d2006d
:100e80000482d2008582d2000000a000020252003b
:100e900083825a00030031000202420083824a002a
:100ea0000000a1000603e900f3ff3a00000006007d
:100eb000889fbe008a9fbe000082700004027100fd
:100ec00004827100260032000004be000200be0051
:100ed0006011b8006b092000950220000182cf004c
:100ee0000a0039000541b1000082cf000700390037
:100ef0000541b1000982cf00040039000541b1006d
:100f00000882cf00010039000541b10005425200be
:100f1000120032000a003b0082817100610164000e
:100f20008100d1000080d3008984d3000884d300dd
:100f30008b05e8000442e800f7ff3a00070037009d
:100f40000804440089844c00000048008180480067
:100f50008b05e9000442e900f9ff3a003dff070074
:0c0f60004f05be004f04be00000006005c
:020000040000fa
:100f6c00557300006f20000043500000553a0000fc
:100f7c002020000020200000202000002020000065
:100f8c000d0a00000055000061720000743a000068
:100f9c002020000020200000202000002020000045
:100fac0020200000200d00000a0000005465000005
:100fbc006d700000657200003a20000020200000d7
:100fcc002020000020200000202000000d0a00003e
:100fdc00005000006f740000656e0000633a000062
:100fec0020200000202000002020000020200000f5
:100ffc00200d00000a0000004a6f00007958000024
:10100c003a200000202000002020000020200000ba
:10101c0020200000202000000d0a0000004a0000e3
:10102c006f790000593a00002020000020200000b9
:10103c00202000002020000020200000201b0000a9
:08104c005b48000000000000f9
:020000040000fa
:101054000000fa002023ef002183a9000119800079
:10106400000e200001007000001988002223ef0008
:1010740025e3a9002119800000f02100010070007f
:101084002019880030c0b30024e3b7003223ef00f6
:101094002623ef002823ef004119800000fe2f00d3
:1010a400008060005000b300401988002e23ef0038
:1010b4003023ef000080eb00501988000080eb0023
:1010c400601988002c83a9002ca3a90085a0a9007d
:1010d40095a0a90021e3a800030007002023a8008d
:1010e4000080fa00000006000000fa000028ef006b
:1010f400500020003040880040002000204088003c
:101104000080fa00000006000000fa0000408000a1
:101114000000e00003003200e10f50000c00320038
:101124001600370020408000004078007f406000b7
:101134000080fb007f0060004219800001fe2f0048
:101144008100610001007000401988000b00370025
:1011540030408000004078007f4060000080fb0049
:101164007f0060004219800001fe2f0081006100b1
:101174000100700040198800000000000080fa009f
:10118400000006000c00fa00400798005107980080
:101194004e009000c300de00500c22000008b8008e
:1011a4004408de00000f78009e00780080c12f0004
:1011b4000088b90000007800800078004e0090009c
:1011c40000804000c200de00b04721000008b800e3
:1011d4000100d100100798009e009000c0f92f0074
:1011e4000088b900000178009e00780080c12f00bb
:1011f4000088b900000078000000410080007800f9
:101204004e00900080804000d0cc2c000008b80034
:101214004308de0020079800ae00900060ff2f0016
:101224000088b900000178009e009000c0f92f00ea
:101234000088b900800178009e00780080c12f00ea
:101244000088b900000078000080410000004100df
:10125400800078004e009000008040003007980025
:101264001e0090000040780002c3b300824040009a
:101274005e009000014878005e0090000000e800e5
:10128400ae009000814078000143b000014878002e
:101294005e0090000080e800be009000814078006d
:1012a4000143b000014878000080fa000000060005
:1012b4000400fa0080802000100078008e0078007e
:1012c400b0ff07009e4078001074240001487800a5
:1012d4009e4090002074240001487800ae409000a5
:1012e40030742400014878008080200010009000b1
:1012f4008e007800a3ff07009e407800407524000c
:10130400014878009e409000507524000148780000
:10131400ae40900060752400014878008080200071
:10132400200090008e00780096ff07009e40780011
:1013340070762400014878009e4090008076240056
:1013440001487800ae40900090762400014878006f
:1013540080802000300090008e00780089ff070014
:101364009e407800a0772400014878009e409000b9
:10137400b077240001487800ae409000c077240084
:10138400014878000080fa00000006000000fa001e
:101394002023ef0001198000000e200001007000de
:1013a400001988002043a8002223ef002343a8004b
:1013b4002423ef0025e3a9002119800000f0210077
:1013c400010070002019880030c0b30024e3b70086
:1013d4003223ef002623ef002823ef002e23ef0013
:1013e40000332000801988000080eb005019880029
:1013f4000080eb00601988002c83a9002ca3a900ad
:101404002d03a9002d23a90085a0a90095a0a9005a
:101414009823ef0099c3a90099a3a9009be3a9000d
:10142400d11c800000f82f0000806000d000b300c1
:10143400d01c880000782000e01c880000302000c8
:10144400001d88002183a9001119800030fc2f00a1
:1014540000806000c000b30010198800911980005a
:1014640080ff2f000080600090198800c11c80005c
:10147400f0fc2f00008060000050a000c01c880019
:10148400c11c8000c0ff2f0000806000c01c8800c9
:10149400f0002000101d8800e023ef008700a90061
:1014a4009700a80099e3a80021e3a8002023a8003e
:1014b4001028ef00808020008000eb0001087800f5
:1014c400808020008000eb001100980080802000c4
:1014d4008000eb0021009800808020008000eb0059
:1014e400310098001228ef000080fa000000060086
:1014f4000000fa00904080000000e0000c0034007e
:101504001228ef002183a900c11c8000f0fc2f00e9
:10151400008060000050a000c01c88003000200043
:10152400101d880000000000000000000b003700c0
:1015340010002000904088002183a800c11c800076
:10154400f0fc2f0000806000c01c880030002000e8
:10155400101d8800000000000000000000000000d2
:10156400000000000080fa00000006000000fa00fd
:1015740080408000e70f500040003c009040800015
:101584000000e0001d003a008080200090007800f8
:10159400403c82004200de008080400080802000c9
:1015a400010878008080200090009000503c820068
:1015b4004200de00808040008080200011009800fe
:1015c40080802000a0009000803c82004200de0069
:1015d40080804000808020002100980080802000ce
:1015e400b0009000903c82004200de008080400009
:1015f40080802000310098001c003700808020008b
:1016040090007800003c82004200de0080804000b0
:1016140080802000010878008080200090009000e5
:10162400103c82004200de00808040008080200068
:101634001100980080802000a0009000203c8200cf
:101644004200de008080400080802000210098005d
:1016540080802000b0009000303c82004200de0018
:10166400808040008080200031009800804080000d
:101674000000e800804088002200370080802000bd
:1016840010007800c300de0080802000010878008c
:101694008080200010009000c300de0080802000c5
:1016a400110098008080200020009000c300de001c
:1016b400808020002100980080802000300090006d
:1016c400c300de008080200031009800f8fe07008f
:1016d400808020008000eb000108780080802000da
:1016e4008000eb0011009800808020008000eb0057
:1016f40021009800808020008000eb0031009800d9
:101704001028ef000080fa00000006000400fa0030
:1017140020479800d6a2a900cbe2a900e1168000d8
:1017240000f02f0000806000e01688002e4090003a
:101734008080fb00e016800001007000e016880045
:10174400d682a800000000000000eb00000f780023
:1017540002003700000000001e0fe8001e007800a1
:10176400e50f5000fbff3400d682a900d6a2a800e2
:101774000080fa00000006000400fa0020479800e8
:10178400d6a2a900cbe2a800e116800000f02f0049
:1017940000806000e01688002e4090008080fb00ee
:1017a400e016800001007000e0168800d682a800d0
:1017b400000000000000eb00000f7800020037007a
:1017c400000000001e0fe8001e007800e50f500026
:1017d400fbff3400d682a900d6a2a8000080fa003c
:1017e400000006000000fa003628ef003828ef0059
:1017f4003a28ef003428ef002a000700720007009f
:10180400f00020003800070080c3b300bfff0700ca
:10181400500020003400070080c3b300bbff070062
:10182400400620004e00070080c3b300b7ff070046
:10183400400620004a00070080c3b300b3ff07003e
:101844004006200046000700c0c0b300afff0700f9
:10185400400620004200070060c0b300abff070051
:10186400020007000080fa00000006000000fa00f1
:101874002221ef008141800000fa20000088b90095
:10188400000078000080e90040098800000028007a
:101894006009880089e0a90099e0a8000080fa00a6
:1018a400000006000000fa003228ef002221ef00b9
:1018b4008141800000fa20000088b900000078000f
:1018c4000000e90040098800000028006009880041
:1018d40089e0a90099e0a9000000000000000000d0
:1018e4000080fa00000006000200fa00000f7800f1
:1018f4002221ef008141800000fa20000088b90015
:10190400000078008000e9001e0078000088b9001b
:101914000000780040098800000028006009880061
:1019240089e0a900000000004104800000002800b4
:10193400008060000000e000fbff320089e0a900a5
:101944000000000000000000000000000000000093
:1019540000000000000000000080fa000000060003
:101964000200fa00000f78002221ef00814180007c
:10197400001920000088b900000078008000e90008
:101984001e0078000088b900000078004009880033
:10199400000028006009880089e0a9000000000018
:1019a4004104800000002800008060000000e00086
:1019b400fbff320089e0a9000000000000000000e5
:1019c4000080fa00000006000000fa00d6a2a80079
:1019d400cbe2a900d682a900d2a2a900c7e2a9003d
:1019e400d282a900d822ef00dc22ef000080fa00a6
:1019f400000006000000fa000000000000000000e3
:101a0400b04180000000e00009003a00c0418000bd
:101a14000000e00006003a0000c8b3003bff0700e6
:101a2400b04180000000e800b04188003000370079
:101a3400b0418000f10f50000b003a00c04180001b
:101a44000000e00008003c0000ccb3002fff0700ba
:101a540010002000b0418800c04180000000e80070
:101a6400c041880022003700b0418000f10f5000cf
:101a740006003a00c0418000e10f500003003a0024
:101a84003828ef003628ef0019003700a041800005
:101a94000000e0000a003a00c0418000b14180002b
:101aa4000101e9007300b900000078000200400061
:101ab400e1702400614078002fff0700090037001f
:101ac400d0418000b14180000101e9007300b900f8
:101ad4000000780002004000e170240061407800ba
:101ae40025ff0700b04180000000e800b0418800f5
:101af4000080fa00000006000c00fa00400798007d
:101b0400510798004e009000c300de00500c2200e4
:101b14000008b8004408de00000f78009e0078003a
:101b240080c12f000088b900000078008000780090
:101b34004e00900000804000c200de00b04721004b
:101b44000008b8000100d100100798009e00900022
:101b5400c0f92f000088b900000178009e007800c9
:101b640080c12f000088b900000078000000410007
:101b7400800078004e00900080804000d0cc2c0083
:101b84000008b8004308de0020079800ae0090006b
:101b940060ff2f000088b900000178009e009000cb
:101ba400c0f92f000088b900800178009e007800f9
:101bb40080c12f000088b900000078000080410037
:101bc40000004100800078004e009000008040003a
:101bd400300798001e0090000040780002c3b30054
:101be400824040005e009000014878005e00900052
:101bf4000000e800ae009000814078000143b0008e
:101c0400014878005e0090000080e800be0090006b
:101c1400814078000143b000014878000080fa0058
:101c2400000006000000fa00640007003004800091
:101c34004b00de00614060000080fb000000e0001b
:101c44000200340000e3200000000100f0418000a5
:101c54000000e800f0418800f4ff37000000fa00bb
:101c6400889fbe00f04180008000eb00f6fb070077
:101c74000004be008141800000c429000088b9002e
:101c8400000078008000eb00effb07000001be00bd
:101c94000800be008ffb07000001be00000020000a
:101ca40001f823002dfb070002002000832c2400f0
:101cb4003afc0700c9fb07000000780030418800a7
:101cc40030418000a18420008bff0700a084200005
:101cd40090407800b071240001487800b08420005e
:101ce40090407800c071240001487800c08420002e
:101cf40090407800d0712400014878000000000072
:101d040000000000000000003e28ef001421ef0056
:101d14008760a9004f04be000080fa00000006009e
:101d24000600fa00200798000000eb00000f78007e
:101d34001a0037000000eb0010079800130037006a
:101d44001e0078007300b900800078001e00900027
:101d540000804000ae0090000080400010417800f8
:101d64001e007800e37024007300b900800078003e
:101d74001e0090000080400000804100024878006e
:101d84001e0090000000e800100798001e0090005c
:101d9400f20f5000eaff34001e0fe8001e00780026
:101da400e50f5000e3ff34000000000000000000d5
:101db400000000000080fa00000006000000fa00a5
:101dc40000000000000000000080eb0060198800a3
:101dd4000080eb00501988000000000000000000a3
:101de40000402b00414c20004041880051418800b4
:101df40040418000514180008100d1000080d30027
:101e04006041880071418800a00020008041880062
:101e1400ea0007007d00070090000700b5000700f6
:101e2400d3000700607b2800bdff07006dfe07009c
:101e340056fd070025000700be0007000080fa00d9
:101e4400000006000000fa00424180005341800077
:101e5400f03f2b00414c2000800f5100818f59002e
:101e64000700360010002000804188000020210077
:101e7400a107200040418800514188000600370036
:101e8400a00020008041880000402b00414c20002d
:101e94004041880051418800404180005141800008
:101ea4008100d1000080d300604188007141880026
:101eb400c20007008f000700ad0007000300070001
:101ec4009c0007000080fa00000006000000fa00f1
:101ed400030007001c0007000080fa000000060051
:101ee4000000fa008023ef0081c3a80081a3a800aa
:101ef400011c8000c0ff2f0000806000001c8800cf
:101f040083e3a900111c800000f82f00008060000a
:101f1400f001b300101c8800e0702000201c880031
:101f240040232000401c880010072000501c88001b
:101f3400e023ef008480a9009480a80081e3a80036
:101f44000080fa00000006000000fa003022ef00d2
:101f540031e2a8003062a900604180007141800034
:101f640002002b0043002000c0fb070000007800a3
:101f74000000e900c01188003222ef0087c0a900e8
:101f840087e0a9008c40a90097e0a90097c0a800a9
:101f94003222a90031e2a8003342a8003422ef0023
:101fa4004428ef004628ef004828ef000080fa009c
:101fb400000006000200fa00004f78000000000054
:101fc4009111800000202000008060000000e000eb
:101fd400fbff3a001e80fb00a01188000080fa007d
:101fe400000006000000fa000000000090118000cc
:101ff400610060000000e000fcff3200b0118000ce
:10200400004078000080fa00000006000000fa009a
:10201400c002a900c022a900c042a900c062a90050
:10202400c082a900c0a2a900c0c2a900c0e2a90040
:102034001c28ef00c402a900c422a900c442a900bc
:10204400c462a900c482a900c4a2a900c4c2a90090
:10205400c4e2a9000080fa00000006000000fa00b3
:10206400d2c2a800d3a2a800c0e2a800d2e2a8006d
:102074001428ef001628ef001828ef001a28ef00a4
:102084001e28ef002028ef002228ef002428ef006c
:1020940061e0a8006260a80062e0a8006200a800f5
:1020a40061058000f0ff28000080600000d0a000df
:1020b400600588008660a9009660a8000080fa0088
:1020c400000006000000fa00e04080000000e0008c
:1020d40003003200c0e2a8001c28ef000300370010
:1020e400c0e2a90010002000e04088000080fa004f
:1020f400000006000000fa003c28ef004028ef0032
:102104003021ef008141800000fa20000088b900ee
:10211400000078000000e900b009880000002800f1
:10212400d00988008a60a9009a60a8000080fa009b
:10213400000006000000fa003e28ef001421ef0022
:102144008141800000c429000088b90000007800a3
:102154006a005000d008880000002800f0088800b9
:102164008760a9009760a9000080fa0000000600bb
:102174000000fa000621ef000a21ef0081418000ef
:1021840000e224000088b900000078000000e900a3
:102194006008880010002000700888008000280073
:1021a400800888008500a9009500a80000000000b0
:1021b400000000000080fa00000006000000fa00a1
:1021c40040a7a900804180004200dd000080e900b2
:1021d400303a8800213a8000f0f32f00008060003c
:1021e400203a8800213a800000fe2f000080600021
:1021f400203a88003200200080072000a109200036
:10220400337420008049780081497800824978003d
:1022140012002000600420007105200023742000b7
:1022240080497800814978008249780000000000e4
:10223400113a800000002700808060000000230025
:10224400808f5000faff3a0000000000113a80002d
:1022540000022000008060000000e000fbff32006c
:082264000080fa0000000600f2
:020000040000fa
:10226c001408000012000000000000004a080000e2
:10227c000400000000000000260800000c00000014
:10228c00000000003c0800000800000000000000f6
:10229c00320800000a0000000000000044080000a2
:1022ac0006000000000000004e08000004000000c2
:1022bc0000000000000800001400000000000000f6
:1022cc008047000080000000000000000e47000066
:0c22dc0072000000000000000000000084
:020000040000fa
:0200000401f009
:04000c00faff0000f7
:020000040000fa
:0200000401f009
:040010007dff000070
:020000040000fa
:0200000401f009
:040014007fff00006a
:00000001FF
